{
  "contractName": "Betting",
  "abi": [
    {
      "inputs": [],
      "stateMutability": "payable",
      "type": "constructor",
      "payable": true
    },
    {
      "anonymous": false,
      "inputs": [
        {
          "indexed": false,
          "internalType": "address",
          "name": "better",
          "type": "address"
        },
        {
          "indexed": false,
          "internalType": "uint256",
          "name": "bettingType",
          "type": "uint256"
        },
        {
          "indexed": false,
          "internalType": "uint256",
          "name": "betValue",
          "type": "uint256"
        },
        {
          "indexed": false,
          "internalType": "uint256",
          "name": "oddsForWinning",
          "type": "uint256"
        }
      ],
      "name": "betPlaced",
      "type": "event"
    },
    {
      "anonymous": false,
      "inputs": [
        {
          "indexed": false,
          "internalType": "address[]",
          "name": "winners",
          "type": "address[]"
        }
      ],
      "name": "payoutComplete",
      "type": "event"
    },
    {
      "inputs": [],
      "name": "betDeadline",
      "outputs": [
        {
          "internalType": "uint256",
          "name": "",
          "type": "uint256"
        }
      ],
      "stateMutability": "view",
      "type": "function",
      "constant": true
    },
    {
      "inputs": [
        {
          "internalType": "address",
          "name": "",
          "type": "address"
        }
      ],
      "name": "bettingAdmins",
      "outputs": [
        {
          "internalType": "uint8",
          "name": "",
          "type": "uint8"
        }
      ],
      "stateMutability": "view",
      "type": "function",
      "constant": true
    },
    {
      "inputs": [
        {
          "internalType": "uint256",
          "name": "",
          "type": "uint256"
        },
        {
          "internalType": "uint256",
          "name": "",
          "type": "uint256"
        }
      ],
      "name": "matchesPlacedBets",
      "outputs": [
        {
          "internalType": "address",
          "name": "better",
          "type": "address"
        },
        {
          "internalType": "uint8",
          "name": "typeofBet",
          "type": "uint8"
        },
        {
          "internalType": "uint256",
          "name": "betAmount",
          "type": "uint256"
        },
        {
          "internalType": "uint16",
          "name": "oddsForWinning",
          "type": "uint16"
        }
      ],
      "stateMutability": "view",
      "type": "function",
      "constant": true
    },
    {
      "inputs": [],
      "name": "owner",
      "outputs": [
        {
          "internalType": "address",
          "name": "",
          "type": "address"
        }
      ],
      "stateMutability": "view",
      "type": "function",
      "constant": true
    },
    {
      "inputs": [
        {
          "internalType": "uint256",
          "name": "",
          "type": "uint256"
        }
      ],
      "name": "winners",
      "outputs": [
        {
          "internalType": "address",
          "name": "",
          "type": "address"
        }
      ],
      "stateMutability": "view",
      "type": "function",
      "constant": true
    },
    {
      "inputs": [
        {
          "internalType": "uint16",
          "name": "matchID",
          "type": "uint16"
        },
        {
          "internalType": "uint8",
          "name": "tieQuote",
          "type": "uint8"
        },
        {
          "internalType": "uint8",
          "name": "teamAQuote",
          "type": "uint8"
        },
        {
          "internalType": "uint8",
          "name": "teamBQuote",
          "type": "uint8"
        }
      ],
      "name": "makeMatch",
      "outputs": [],
      "stateMutability": "nonpayable",
      "type": "function"
    },
    {
      "inputs": [
        {
          "internalType": "uint16",
          "name": "matchID",
          "type": "uint16"
        },
        {
          "internalType": "uint8",
          "name": "bettingType",
          "type": "uint8"
        },
        {
          "internalType": "uint16",
          "name": "oddsForWinning",
          "type": "uint16"
        }
      ],
      "name": "placeBet",
      "outputs": [],
      "stateMutability": "payable",
      "type": "function",
      "payable": true
    },
    {
      "inputs": [
        {
          "internalType": "uint16",
          "name": "matchID",
          "type": "uint16"
        },
        {
          "internalType": "uint8",
          "name": "winningType",
          "type": "uint8"
        }
      ],
      "name": "payWinningBets",
      "outputs": [],
      "stateMutability": "payable",
      "type": "function",
      "payable": true
    },
    {
      "inputs": [
        {
          "internalType": "address",
          "name": "newAdminAddress",
          "type": "address"
        }
      ],
      "name": "addAdmin",
      "outputs": [],
      "stateMutability": "nonpayable",
      "type": "function"
    },
    {
      "inputs": [
        {
          "internalType": "address",
          "name": "adminAddress",
          "type": "address"
        }
      ],
      "name": "deleteAdmin",
      "outputs": [],
      "stateMutability": "nonpayable",
      "type": "function"
    },
    {
      "inputs": [
        {
          "internalType": "uint16",
          "name": "matchID",
          "type": "uint16"
        }
      ],
      "name": "matchExists_f",
      "outputs": [
        {
          "internalType": "bool",
          "name": "",
          "type": "bool"
        }
      ],
      "stateMutability": "view",
      "type": "function",
      "constant": true
    }
  ],
  "bytecode": "0x6080604052336000806101000a81548173ffffffffffffffffffffffffffffffffffffffff021916908373ffffffffffffffffffffffffffffffffffffffff1602179055506001600460008060009054906101000a900473ffffffffffffffffffffffffffffffffffffffff1673ffffffffffffffffffffffffffffffffffffffff1673ffffffffffffffffffffffffffffffffffffffff16815260200190815260200160002060006101000a81548160ff021916908360ff1602179055506301e1338042620000d0919062000397565b600181905550620000e6620000ec60201b60201c565b6200042d565b6200010460016003600260036200017d60201b60201c565b6200011b600280600960026200017d60201b60201c565b6200013360036002600360056200017d60201b60201c565b6200014b60046002600360056200017d60201b60201c565b6200016360056002600360056200017d60201b60201c565b6200017b60066002600360056200017d60201b60201c565b565b6001600460003373ffffffffffffffffffffffffffffffffffffffff1673ffffffffffffffffffffffffffffffffffffffff16815260200190815260200160002060009054906101000a900460ff1660ff161462000212576040517f08c379a0000000000000000000000000000000000000000000000000000000008152600401620002099062000342565b60405180910390fd5b6000600360008661ffff1661ffff16815260200190815260200160002060009054906101000a900460ff1660ff161462000283576040517f08c379a00000000000000000000000000000000000000000000000000000000081526004016200027a9062000364565b60405180910390fd5b6001600360008661ffff1661ffff16815260200190815260200160002060006101000a81548160ff021916908360ff16021790555050505050565b6000620002cd600c8362000386565b91507f6e6f7420616e2061646d696e00000000000000000000000000000000000000006000830152602082019050919050565b60006200030f60148362000386565b91507f6d6174636820616c7265616479206578697374730000000000000000000000006000830152602082019050919050565b600060208201905081810360008301526200035d81620002be565b9050919050565b600060208201905081810360008301526200037f8162000300565b9050919050565b600082825260208201905092915050565b6000620003a482620003f4565b9150620003b183620003f4565b9250827fffffffffffffffffffffffffffffffffffffffffffffffffffffffffffffffff03821115620003e957620003e8620003fe565b5b828201905092915050565b6000819050919050565b7f4e487b7100000000000000000000000000000000000000000000000000000000600052601160045260246000fd5b611819806200043d6000396000f3fe60806040526004361061009c5760003560e01c80639464a83c116100645780639464a83c1461019857806399ae9908146101b4578063a2fb1175146101df578063a6d932d11461021c578063c3f4569514610238578063c5534b5c146102615761009c565b80630bf8dff5146100a157806320ba0777146100de57806327e1f7df1461011b57806370480275146101445780638da5cb5b1461016d575b600080fd5b3480156100ad57600080fd5b506100c860048036038101906100c39190610f02565b6102a1565b6040516100d591906113e0565b60405180910390f35b3480156100ea57600080fd5b5061010560048036038101906101009190610ed9565b61037c565b60405161011291906114d6565b60405180910390f35b34801561012757600080fd5b50610142600480360381019061013d9190610ed9565b61039c565b005b34801561015057600080fd5b5061016b60048036038101906101669190610ed9565b610480565b005b34801561017957600080fd5b5061018261056e565b60405161018f9190611319565b60405180910390f35b6101b260048036038101906101ad9190610f67565b610592565b005b3480156101c057600080fd5b506101c9610842565b6040516101d691906114bb565b60405180910390f35b3480156101eb57600080fd5b5061020660048036038101906102019190611019565b610848565b6040516102139190611319565b60405180910390f35b61023660048036038101906102319190610f2b565b610887565b005b34801561024457600080fd5b5061025f600480360381019061025a9190610fb6565b610cc2565b005b34801561026d57600080fd5b5061028860048036038101906102839190611042565b610dfd565b6040516102989493929190611379565b60405180910390f35b60006001600460003373ffffffffffffffffffffffffffffffffffffffff1673ffffffffffffffffffffffffffffffffffffffff16815260200190815260200160002060009054906101000a900460ff1660ff1614610335576040517f08c379a000000000000000000000000000000000000000000000000000000000815260040161032c9061143b565b60405180910390fd5b6001600360008461ffff1661ffff16815260200190815260200160002060009054906101000a900460ff1660ff1614156103725760019050610377565b600090505b919050565b60046020528060005260406000206000915054906101000a900460ff1681565b6001600460003373ffffffffffffffffffffffffffffffffffffffff1673ffffffffffffffffffffffffffffffffffffffff16815260200190815260200160002060009054906101000a900460ff1660ff161461042e576040517f08c379a00000000000000000000000000000000000000000000000000000000081526004016104259061143b565b60405180910390fd5b600460008273ffffffffffffffffffffffffffffffffffffffff1673ffffffffffffffffffffffffffffffffffffffff16815260200190815260200160002060006101000a81549060ff021916905550565b6001600460003373ffffffffffffffffffffffffffffffffffffffff1673ffffffffffffffffffffffffffffffffffffffff16815260200190815260200160002060009054906101000a900460ff1660ff1614610512576040517f08c379a00000000000000000000000000000000000000000000000000000000081526004016105099061143b565b60405180910390fd5b6001600460008373ffffffffffffffffffffffffffffffffffffffff1673ffffffffffffffffffffffffffffffffffffffff16815260200190815260200160002060006101000a81548160ff021916908360ff16021790555050565b60008054906101000a900473ffffffffffffffffffffffffffffffffffffffff1681565b60003410156105d6576040517f08c379a00000000000000000000000000000000000000000000000000000000081526004016105cd906113fb565b60405180910390fd5b60008260ff1614806105eb575060018260ff16145b806105f9575060028260ff16145b610638576040517f08c379a000000000000000000000000000000000000000000000000000000000815260040161062f9061149b565b60405180910390fd5b60015442111561067d576040517f08c379a00000000000000000000000000000000000000000000000000000000081526004016106749061145b565b60405180910390fd5b6001600360008561ffff1661ffff16815260200190815260200160002060009054906101000a900460ff1660ff16146106eb576040517f08c379a00000000000000000000000000000000000000000000000000000000081526004016106e29061141b565b60405180910390fd5b600560008461ffff16815260200190815260200160002060405180608001604052803373ffffffffffffffffffffffffffffffffffffffff1681526020018460ff1681526020013481526020018361ffff16815250908060018154018082558091505060019003906000526020600020906003020160009091909190915060008201518160000160006101000a81548173ffffffffffffffffffffffffffffffffffffffff021916908373ffffffffffffffffffffffffffffffffffffffff16021790555060208201518160000160146101000a81548160ff021916908360ff1602179055506040820151816001015560608201518160020160006101000a81548161ffff021916908361ffff16021790555050507fd121577be0822e8a7239d8602221827df95d3a809db0b35bd79b611575a9fd19338334846040516108359493929190611334565b60405180910390a1505050565b60015481565b6002818154811061085857600080fd5b906000526020600020016000915054906101000a900473ffffffffffffffffffffffffffffffffffffffff1681565b6001600460003373ffffffffffffffffffffffffffffffffffffffff1673ffffffffffffffffffffffffffffffffffffffff16815260200190815260200160002060009054906101000a900460ff1660ff1614610919576040517f08c379a00000000000000000000000000000000000000000000000000000000081526004016109109061143b565b60405180910390fd5b60005b600560008461ffff16815260200190815260200160002080549050811015610c85578160ff16600560008561ffff1681526020019081526020016000208281548110610991577f4e487b7100000000000000000000000000000000000000000000000000000000600052603260045260246000fd5b906000526020600020906003020160000160149054906101000a900460ff1660ff161415610c72576002600560008561ffff1681526020019081526020016000208281548110610a0a577f4e487b7100000000000000000000000000000000000000000000000000000000600052603260045260246000fd5b906000526020600020906003020160000160009054906101000a900473ffffffffffffffffffffffffffffffffffffffff169080600181540180825580915050600190039060005260206000200160009091909190916101000a81548173ffffffffffffffffffffffffffffffffffffffff021916908373ffffffffffffffffffffffffffffffffffffffff1602179055506000600560008561ffff1681526020019081526020016000208281548110610aed577f4e487b7100000000000000000000000000000000000000000000000000000000600052603260045260246000fd5b906000526020600020906003020160020160009054906101000a900461ffff1661ffff16600560008661ffff1681526020019081526020016000208381548110610b60577f4e487b7100000000000000000000000000000000000000000000000000000000600052603260045260246000fd5b906000526020600020906003020160010154610b7c9190611571565b905060006127106101f483610b919190611571565b610b9b9190611540565b9050600560008661ffff1681526020019081526020016000208381548110610bec577f4e487b7100000000000000000000000000000000000000000000000000000000600052603260045260246000fd5b906000526020600020906003020160000160009054906101000a900473ffffffffffffffffffffffffffffffffffffffff1673ffffffffffffffffffffffffffffffffffffffff166108fc8284610c4391906115cb565b9081150290604051600060405180830381858888f19350505050158015610c6e573d6000803e3d6000fd5b5050505b8080610c7d906116c0565b91505061091c565b507f5c3755011085a7911edc7506e412199ac60571e38cbf1834cd4c3c2aa360be8c6002604051610cb691906113be565b60405180910390a15050565b6001600460003373ffffffffffffffffffffffffffffffffffffffff1673ffffffffffffffffffffffffffffffffffffffff16815260200190815260200160002060009054906101000a900460ff1660ff1614610d54576040517f08c379a0000000000000000000000000000000000000000000000000000000008152600401610d4b9061143b565b60405180910390fd5b6000600360008661ffff1661ffff16815260200190815260200160002060009054906101000a900460ff1660ff1614610dc2576040517f08c379a0000000000000000000000000000000000000000000000000000000008152600401610db99061147b565b60405180910390fd5b6001600360008661ffff1661ffff16815260200190815260200160002060006101000a81548160ff021916908360ff16021790555050505050565b60056020528160005260406000208181548110610e1957600080fd5b9060005260206000209060030201600091509150508060000160009054906101000a900473ffffffffffffffffffffffffffffffffffffffff16908060000160149054906101000a900460ff16908060010154908060020160009054906101000a900461ffff16905084565b600081359050610e9481611787565b92915050565b600081359050610ea98161179e565b92915050565b600081359050610ebe816117b5565b92915050565b600081359050610ed3816117cc565b92915050565b600060208284031215610eeb57600080fd5b6000610ef984828501610e85565b91505092915050565b600060208284031215610f1457600080fd5b6000610f2284828501610e9a565b91505092915050565b60008060408385031215610f3e57600080fd5b6000610f4c85828601610e9a565b9250506020610f5d85828601610ec4565b9150509250929050565b600080600060608486031215610f7c57600080fd5b6000610f8a86828701610e9a565b9350506020610f9b86828701610ec4565b9250506040610fac86828701610e9a565b9150509250925092565b60008060008060808587031215610fcc57600080fd5b6000610fda87828801610e9a565b9450506020610feb87828801610ec4565b9350506040610ffc87828801610ec4565b925050606061100d87828801610ec4565b91505092959194509250565b60006020828403121561102b57600080fd5b600061103984828501610eaf565b91505092915050565b6000806040838503121561105557600080fd5b600061106385828601610eaf565b925050602061107485828601610eaf565b9150509250929050565b600061108a8383611096565b60208301905092915050565b61109f8161161f565b82525050565b6110ae8161161f565b82525050565b60006110bf82611506565b6110c9818561151e565b93506110d4836114f1565b8060005b8381101561110c576110e982611767565b6110f3888261107e565b97506110fe83611511565b9250506001810190506110d8565b5085935050505092915050565b61112281611631565b82525050565b600061113560128361152f565b91507f696e76616c69642062657420616d6f756e7400000000000000000000000000006000830152602082019050919050565b600061117560148361152f565b91507f4d6174636820646f6573206e6f742065786973740000000000000000000000006000830152602082019050919050565b60006111b5600c8361152f565b91507f6e6f7420616e2061646d696e00000000000000000000000000000000000000006000830152602082019050919050565b60006111f560138361152f565b91507f62657420646561646c696e6520706173736564000000000000000000000000006000830152602082019050919050565b600061123560148361152f565b91507f6d6174636820616c7265616479206578697374730000000000000000000000006000830152602082019050919050565b600061127560328361152f565b91507f696e76616c69642062657474696e6720747970652c20737570706f727465642060008301527f76616c7565732061726520302c20312c203200000000000000000000000000006020830152604082019050919050565b6112d78161163d565b82525050565b6112e681611682565b82525050565b6112f58161166b565b82525050565b61130481611694565b82525050565b61131381611675565b82525050565b600060208201905061132e60008301846110a5565b92915050565b600060808201905061134960008301876110a5565b61135660208301866112fb565b61136360408301856112ec565b61137060608301846112dd565b95945050505050565b600060808201905061138e60008301876110a5565b61139b602083018661130a565b6113a860408301856112ec565b6113b560608301846112ce565b95945050505050565b600060208201905081810360008301526113d881846110b4565b905092915050565b60006020820190506113f56000830184611119565b92915050565b6000602082019050818103600083015261141481611128565b9050919050565b6000602082019050818103600083015261143481611168565b9050919050565b60006020820190508181036000830152611454816111a8565b9050919050565b60006020820190508181036000830152611474816111e8565b9050919050565b6000602082019050818103600083015261149481611228565b9050919050565b600060208201905081810360008301526114b481611268565b9050919050565b60006020820190506114d060008301846112ec565b92915050565b60006020820190506114eb600083018461130a565b92915050565b60008190508160005260206000209050919050565b600081549050919050565b6000600182019050919050565b600082825260208201905092915050565b600082825260208201905092915050565b600061154b8261166b565b91506115568361166b565b92508261156657611565611738565b5b828204905092915050565b600061157c8261166b565b91506115878361166b565b9250817fffffffffffffffffffffffffffffffffffffffffffffffffffffffffffffffff04831182151516156115c0576115bf611709565b5b828202905092915050565b60006115d68261166b565b91506115e18361166b565b9250828210156115f4576115f3611709565b5b828203905092915050565b600073ffffffffffffffffffffffffffffffffffffffff82169050919050565b600061162a8261164b565b9050919050565b60008115159050919050565b600061ffff82169050919050565b600073ffffffffffffffffffffffffffffffffffffffff82169050919050565b6000819050919050565b600060ff82169050919050565b600061168d8261163d565b9050919050565b600061169f82611675565b9050919050565b60006116b96116b48361177a565b6115ff565b9050919050565b60006116cb8261166b565b91507fffffffffffffffffffffffffffffffffffffffffffffffffffffffffffffffff8214156116fe576116fd611709565b5b600182019050919050565b7f4e487b7100000000000000000000000000000000000000000000000000000000600052601160045260246000fd5b7f4e487b7100000000000000000000000000000000000000000000000000000000600052601260045260246000fd5b600061177382546116a6565b9050919050565b60008160001c9050919050565b6117908161161f565b811461179b57600080fd5b50565b6117a78161163d565b81146117b257600080fd5b50565b6117be8161166b565b81146117c957600080fd5b50565b6117d581611675565b81146117e057600080fd5b5056fea2646970667358221220aaa197a742562fd8fcba4ee4765d355cda70634465bbeb963650e76758a9fe9064736f6c63430008000033",
  "immutableReferences": {},
  "source": "pragma solidity ^0.8.0;\n\ncontract Betting {\n\n    address public owner;\n    uint public betDeadline; // svi mecevi imaju isti betting deadline\n\n    event betPlaced(address better, uint bettingType, uint betValue, uint oddsForWinning);\n    event payoutComplete(address[] winners);\n\n    struct Match {\n        uint16 matchID;\n        uint8 tieQuote;\n        uint8 teamAQuote;\n        uint8 teamBQuote;\n    }\n\n    struct Bet {\n        address better;\n        uint8 typeofBet;\n        uint256 betAmount;\n        uint16 oddsForWinning;\n    }\n\n    address [] public winners;\n\n    mapping(uint16 => uint8) matchExists; // matchID => 0, 1\n    mapping(address => uint8) public bettingAdmins;\n    mapping(uint => Bet[]) public matchesPlacedBets; // matchID => Bet(address, typeofBet, betAmount)[]\n\n    constructor () payable {\n        // payable to have an initial amount on the house - needs to be able to payout a single winning bet\n       \t//require(msg.value == 1 ether, \"initial amount should be 1 eth\");\n        owner = msg.sender;\n        bettingAdmins[owner] = 1;\n        betDeadline = block.timestamp + 365 days; // example deadline\n\t\tmakeMatches();\n    }\n\n    modifier onlyAdmin(){\n        require(bettingAdmins[msg.sender] == 1, \"not an admin\");\n        _;\n    }\n\n\tfunction makeMatches() internal {\n\t\tmakeMatch(1, 3, 2, 3);\n\t\tmakeMatch(2, 2, 9, 2);\n\t\tmakeMatch(3, 2, 3, 5);\n\t\tmakeMatch(4, 2, 3, 5);\n\t\tmakeMatch(5, 2, 3, 5);\n\t\tmakeMatch(6, 2, 3, 5);\n\t}\n\n\tfunction makeMatch(uint16 matchID, uint8 tieQuote, uint8 teamAQuote, uint8 teamBQuote) public onlyAdmin {\n  \t  require(matchExists[matchID] == 0, \"match already exists\");\n  \t  matchExists[matchID] = 1;\n    }\n\n    function placeBet(uint16 matchID, uint8 bettingType, uint16 oddsForWinning) external payable {\n        // bettingType (0, 1, 2) - (Tie, TeamA, TeamB)\n\n        // err checks\n        require(msg.value >= 0, \"invalid bet amount\");\n        require(bettingType == 0 || bettingType == 1 || bettingType == 2, \"invalid betting type, supported values are 0, 1, 2\");\n        require(block.timestamp <= betDeadline, \"bet deadline passed\");\n\t\trequire(matchExists[matchID] == 1, \"Match does not exist\");\n\n        matchesPlacedBets[matchID].push(Bet(msg.sender, bettingType, msg.value, oddsForWinning));\n        emit betPlaced(msg.sender, bettingType, msg.value, oddsForWinning);\n    }\n\n    function payWinningBets(uint16 matchID, uint8 winningType) external payable onlyAdmin {\n\n        for(uint i = 0; i < matchesPlacedBets[matchID].length; i++){\n            if(matchesPlacedBets[matchID][i].typeofBet == winningType) {\n\n                winners.push(matchesPlacedBets[matchID][i].better);\n                uint total = matchesPlacedBets[matchID][i].betAmount * matchesPlacedBets[matchID][i].oddsForWinning;\n                // return rate = total * 0.95, 5% fee = 500 basis points\n                // imprecise values appear when bet <= 10000, in this case wei. TODO impose min betAmount\n\n                uint fee = total * 500 / 10000;\n                payable(matchesPlacedBets[matchID][i].better).transfer(total - fee);\n            }\n        }\n        emit payoutComplete(winners);\n    }\n\n    function addAdmin(address newAdminAddress) external onlyAdmin {\n        bettingAdmins[newAdminAddress] = 1;\n    }\n\n    function deleteAdmin(address adminAddress) external onlyAdmin {\n\t\tdelete bettingAdmins[adminAddress];\n\t}\n\n\n\tfunction matchExists_f(uint16 matchID) view external onlyAdmin returns(bool){\n\t\tif(matchExists[matchID] == 1)\n\t\t\treturn true;\n\t\treturn false;\n\t}\n}\n",
  "sourcePath": "/home/lav/Desktop/3327 assignment/contracts/Betting.sol",
  "compiler": {
    "name": "solc",
    "version": "0.8.0+commit.c7dfd78e.Emscripten.clang"
  },
  "schemaVersion": "3.4.1",
  "updatedAt": "2021-07-14T20:26:47.088Z",
  "networkType": "ethereum",
  "devdoc": {
    "kind": "dev",
    "methods": {},
    "version": 1
  },
  "userdoc": {
    "kind": "user",
    "methods": {},
    "version": 1
  }
}