{
  "contractName": "Betting",
  "abi": [
    {
      "inputs": [],
      "stateMutability": "payable",
      "type": "constructor",
      "payable": true
    },
    {
      "anonymous": false,
      "inputs": [
        {
          "indexed": false,
          "internalType": "address",
          "name": "better",
          "type": "address"
        },
        {
          "indexed": false,
          "internalType": "uint256",
          "name": "bettingType",
          "type": "uint256"
        },
        {
          "indexed": false,
          "internalType": "uint256",
          "name": "betValue",
          "type": "uint256"
        },
        {
          "indexed": false,
          "internalType": "uint256",
          "name": "oddsForWinning",
          "type": "uint256"
        }
      ],
      "name": "betPlaced",
      "type": "event"
    },
    {
      "anonymous": false,
      "inputs": [
        {
          "indexed": false,
          "internalType": "address[]",
          "name": "winners",
          "type": "address[]"
        }
      ],
      "name": "payoutComplete",
      "type": "event"
    },
    {
      "inputs": [],
      "name": "betDeadline",
      "outputs": [
        {
          "internalType": "uint256",
          "name": "",
          "type": "uint256"
        }
      ],
      "stateMutability": "view",
      "type": "function",
      "constant": true
    },
    {
      "inputs": [
        {
          "internalType": "address",
          "name": "",
          "type": "address"
        }
      ],
      "name": "bettingAdmins",
      "outputs": [
        {
          "internalType": "uint8",
          "name": "",
          "type": "uint8"
        }
      ],
      "stateMutability": "view",
      "type": "function",
      "constant": true
    },
    {
      "inputs": [
        {
          "internalType": "uint256",
          "name": "",
          "type": "uint256"
        }
      ],
      "name": "matches",
      "outputs": [
        {
          "internalType": "uint16",
          "name": "matchID",
          "type": "uint16"
        },
        {
          "internalType": "uint8",
          "name": "tieQuote",
          "type": "uint8"
        },
        {
          "internalType": "uint8",
          "name": "teamAQuote",
          "type": "uint8"
        },
        {
          "internalType": "uint8",
          "name": "teamBQuote",
          "type": "uint8"
        }
      ],
      "stateMutability": "view",
      "type": "function",
      "constant": true
    },
    {
      "inputs": [
        {
          "internalType": "uint256",
          "name": "",
          "type": "uint256"
        },
        {
          "internalType": "uint256",
          "name": "",
          "type": "uint256"
        }
      ],
      "name": "matchesPlacedBets",
      "outputs": [
        {
          "internalType": "address",
          "name": "better",
          "type": "address"
        },
        {
          "internalType": "uint8",
          "name": "typeofBet",
          "type": "uint8"
        },
        {
          "internalType": "uint256",
          "name": "betAmount",
          "type": "uint256"
        },
        {
          "internalType": "uint16",
          "name": "oddsForWinning",
          "type": "uint16"
        }
      ],
      "stateMutability": "view",
      "type": "function",
      "constant": true
    },
    {
      "inputs": [],
      "name": "owner",
      "outputs": [
        {
          "internalType": "address",
          "name": "",
          "type": "address"
        }
      ],
      "stateMutability": "view",
      "type": "function",
      "constant": true
    },
    {
      "inputs": [
        {
          "internalType": "uint256",
          "name": "",
          "type": "uint256"
        }
      ],
      "name": "winners",
      "outputs": [
        {
          "internalType": "address",
          "name": "",
          "type": "address"
        }
      ],
      "stateMutability": "view",
      "type": "function",
      "constant": true
    },
    {
      "inputs": [
        {
          "internalType": "uint16",
          "name": "matchID",
          "type": "uint16"
        },
        {
          "internalType": "uint8",
          "name": "tieQuote",
          "type": "uint8"
        },
        {
          "internalType": "uint8",
          "name": "teamAQuote",
          "type": "uint8"
        },
        {
          "internalType": "uint8",
          "name": "teamBQuote",
          "type": "uint8"
        }
      ],
      "name": "makeMatch",
      "outputs": [],
      "stateMutability": "nonpayable",
      "type": "function"
    },
    {
      "inputs": [
        {
          "internalType": "uint16",
          "name": "matchID",
          "type": "uint16"
        },
        {
          "internalType": "uint8",
          "name": "bettingType",
          "type": "uint8"
        },
        {
          "internalType": "uint16",
          "name": "oddsForWinning",
          "type": "uint16"
        }
      ],
      "name": "placeBet",
      "outputs": [],
      "stateMutability": "payable",
      "type": "function",
      "payable": true
    },
    {
      "inputs": [
        {
          "internalType": "uint16",
          "name": "matchID",
          "type": "uint16"
        },
        {
          "internalType": "uint8",
          "name": "winningType",
          "type": "uint8"
        }
      ],
      "name": "payWinningBets",
      "outputs": [],
      "stateMutability": "payable",
      "type": "function",
      "payable": true
    },
    {
      "inputs": [
        {
          "internalType": "address",
          "name": "newAdminAddress",
          "type": "address"
        }
      ],
      "name": "addAdmin",
      "outputs": [],
      "stateMutability": "nonpayable",
      "type": "function"
    },
    {
      "inputs": [
        {
          "internalType": "address",
          "name": "adminAddress",
          "type": "address"
        }
      ],
      "name": "deleteAdmin",
      "outputs": [],
      "stateMutability": "nonpayable",
      "type": "function"
    }
  ],
  "bytecode": "0x6080604052336000806101000a81548173ffffffffffffffffffffffffffffffffffffffff021916908373ffffffffffffffffffffffffffffffffffffffff1602179055506001600560008060009054906101000a900473ffffffffffffffffffffffffffffffffffffffff1673ffffffffffffffffffffffffffffffffffffffff1673ffffffffffffffffffffffffffffffffffffffff16815260200190815260200160002060006101000a81548160ff021916908360ff16021790555062093a8042620000cf9190620000db565b60018190555062000171565b6000620000e88262000138565b9150620000f58362000138565b9250827fffffffffffffffffffffffffffffffffffffffffffffffffffffffffffffffff038211156200012d576200012c62000142565b5b828201905092915050565b6000819050919050565b7f4e487b7100000000000000000000000000000000000000000000000000000000600052601160045260246000fd5b61184080620001816000396000f3fe60806040526004361061009c5760003560e01c80639464a83c116100645780639464a83c1461019b57806399ae9908146101b7578063a2fb1175146101e2578063a6d932d11461021f578063c3f456951461023b578063c5534b5c146102645761009c565b806320ba0777146100a157806327e1f7df146100de5780634768d4ef1461010757806370480275146101475780638da5cb5b14610170575b600080fd5b3480156100ad57600080fd5b506100c860048036038101906100c39190610f1a565b6102a4565b6040516100d59190611509565b60405180910390f35b3480156100ea57600080fd5b5061010560048036038101906101009190610f1a565b6102c4565b005b34801561011357600080fd5b5061012e60048036038101906101299190611031565b6103a8565b60405161013e94939291906114a9565b60405180910390f35b34801561015357600080fd5b5061016e60048036038101906101699190610f1a565b610419565b005b34801561017c57600080fd5b50610185610507565b6040516101929190611322565b60405180910390f35b6101b560048036038101906101b09190610f7f565b61052b565b005b3480156101c357600080fd5b506101cc6107db565b6040516101d991906114ee565b60405180910390f35b3480156101ee57600080fd5b5061020960048036038101906102049190611031565b6107e1565b6040516102169190611322565b60405180910390f35b61023960048036038101906102349190610f43565b610820565b005b34801561024757600080fd5b50610262600480360381019061025d9190610fce565b610c5b565b005b34801561027057600080fd5b5061028b6004803603810190610286919061105a565b610e3e565b60405161029b9493929190611382565b60405180910390f35b60056020528060005260406000206000915054906101000a900460ff1681565b6001600560003373ffffffffffffffffffffffffffffffffffffffff1673ffffffffffffffffffffffffffffffffffffffff16815260200190815260200160002060009054906101000a900460ff1660ff1614610356576040517f08c379a000000000000000000000000000000000000000000000000000000000815260040161034d90611429565b60405180910390fd5b600560008273ffffffffffffffffffffffffffffffffffffffff1673ffffffffffffffffffffffffffffffffffffffff16815260200190815260200160002060006101000a81549060ff021916905550565b600281815481106103b857600080fd5b906000526020600020016000915090508060000160009054906101000a900461ffff16908060000160029054906101000a900460ff16908060000160039054906101000a900460ff16908060000160049054906101000a900460ff16905084565b6001600560003373ffffffffffffffffffffffffffffffffffffffff1673ffffffffffffffffffffffffffffffffffffffff16815260200190815260200160002060009054906101000a900460ff1660ff16146104ab576040517f08c379a00000000000000000000000000000000000000000000000000000000081526004016104a290611429565b60405180910390fd5b6001600560008373ffffffffffffffffffffffffffffffffffffffff1673ffffffffffffffffffffffffffffffffffffffff16815260200190815260200160002060006101000a81548160ff021916908360ff16021790555050565b60008054906101000a900473ffffffffffffffffffffffffffffffffffffffff1681565b600034101561056f576040517f08c379a0000000000000000000000000000000000000000000000000000000008152600401610566906113e9565b60405180910390fd5b60008260ff161480610584575060018260ff16145b80610592575060028260ff16145b6105d1576040517f08c379a00000000000000000000000000000000000000000000000000000000081526004016105c890611489565b60405180910390fd5b600154421115610616576040517f08c379a000000000000000000000000000000000000000000000000000000000815260040161060d90611449565b60405180910390fd5b6001600460008561ffff1661ffff16815260200190815260200160002060009054906101000a900460ff1660ff1614610684576040517f08c379a000000000000000000000000000000000000000000000000000000000815260040161067b90611409565b60405180910390fd5b600660008461ffff16815260200190815260200160002060405180608001604052803373ffffffffffffffffffffffffffffffffffffffff1681526020018460ff1681526020013481526020018361ffff16815250908060018154018082558091505060019003906000526020600020906003020160009091909190915060008201518160000160006101000a81548173ffffffffffffffffffffffffffffffffffffffff021916908373ffffffffffffffffffffffffffffffffffffffff16021790555060208201518160000160146101000a81548160ff021916908360ff1602179055506040820151816001015560608201518160020160006101000a81548161ffff021916908361ffff16021790555050507fd121577be0822e8a7239d8602221827df95d3a809db0b35bd79b611575a9fd19338334846040516107ce949392919061133d565b60405180910390a1505050565b60015481565b600381815481106107f157600080fd5b906000526020600020016000915054906101000a900473ffffffffffffffffffffffffffffffffffffffff1681565b6001600560003373ffffffffffffffffffffffffffffffffffffffff1673ffffffffffffffffffffffffffffffffffffffff16815260200190815260200160002060009054906101000a900460ff1660ff16146108b2576040517f08c379a00000000000000000000000000000000000000000000000000000000081526004016108a990611429565b60405180910390fd5b60005b600660008461ffff16815260200190815260200160002080549050811015610c1e578160ff16600660008561ffff168152602001908152602001600020828154811061092a577f4e487b7100000000000000000000000000000000000000000000000000000000600052603260045260246000fd5b906000526020600020906003020160000160149054906101000a900460ff1660ff161415610c0b576003600660008561ffff16815260200190815260200160002082815481106109a3577f4e487b7100000000000000000000000000000000000000000000000000000000600052603260045260246000fd5b906000526020600020906003020160000160009054906101000a900473ffffffffffffffffffffffffffffffffffffffff169080600181540180825580915050600190039060005260206000200160009091909190916101000a81548173ffffffffffffffffffffffffffffffffffffffff021916908373ffffffffffffffffffffffffffffffffffffffff1602179055506000600660008561ffff1681526020019081526020016000208281548110610a86577f4e487b7100000000000000000000000000000000000000000000000000000000600052603260045260246000fd5b906000526020600020906003020160020160009054906101000a900461ffff1661ffff16600660008661ffff1681526020019081526020016000208381548110610af9577f4e487b7100000000000000000000000000000000000000000000000000000000600052603260045260246000fd5b906000526020600020906003020160010154610b1591906115a4565b905060006127106101f483610b2a91906115a4565b610b349190611573565b9050600660008661ffff1681526020019081526020016000208381548110610b85577f4e487b7100000000000000000000000000000000000000000000000000000000600052603260045260246000fd5b906000526020600020906003020160000160009054906101000a900473ffffffffffffffffffffffffffffffffffffffff1673ffffffffffffffffffffffffffffffffffffffff166108fc8284610bdc91906115fe565b9081150290604051600060405180830381858888f19350505050158015610c07573d6000803e3d6000fd5b5050505b8080610c16906116e7565b9150506108b5565b507f5c3755011085a7911edc7506e412199ac60571e38cbf1834cd4c3c2aa360be8c6003604051610c4f91906113c7565b60405180910390a15050565b6001600560003373ffffffffffffffffffffffffffffffffffffffff1673ffffffffffffffffffffffffffffffffffffffff16815260200190815260200160002060009054906101000a900460ff1660ff1614610ced576040517f08c379a0000000000000000000000000000000000000000000000000000000008152600401610ce490611429565b60405180910390fd5b6000600460008661ffff1661ffff16815260200190815260200160002060009054906101000a900460ff1660ff1614610d5b576040517f08c379a0000000000000000000000000000000000000000000000000000000008152600401610d5290611469565b60405180910390fd5b600260405180608001604052808661ffff1681526020018560ff1681526020018460ff1681526020018360ff168152509080600181540180825580915050600190039060005260206000200160009091909190915060008201518160000160006101000a81548161ffff021916908361ffff16021790555060208201518160000160026101000a81548160ff021916908360ff16021790555060408201518160000160036101000a81548160ff021916908360ff16021790555060608201518160000160046101000a81548160ff021916908360ff160217905550505050505050565b60066020528160005260406000208181548110610e5a57600080fd5b9060005260206000209060030201600091509150508060000160009054906101000a900473ffffffffffffffffffffffffffffffffffffffff16908060000160149054906101000a900460ff16908060010154908060020160009054906101000a900461ffff16905084565b600081359050610ed5816117ae565b92915050565b600081359050610eea816117c5565b92915050565b600081359050610eff816117dc565b92915050565b600081359050610f14816117f3565b92915050565b600060208284031215610f2c57600080fd5b6000610f3a84828501610ec6565b91505092915050565b60008060408385031215610f5657600080fd5b6000610f6485828601610edb565b9250506020610f7585828601610f05565b9150509250929050565b600080600060608486031215610f9457600080fd5b6000610fa286828701610edb565b9350506020610fb386828701610f05565b9250506040610fc486828701610edb565b9150509250925092565b60008060008060808587031215610fe457600080fd5b6000610ff287828801610edb565b945050602061100387828801610f05565b935050604061101487828801610f05565b925050606061102587828801610f05565b91505092959194509250565b60006020828403121561104357600080fd5b600061105184828501610ef0565b91505092915050565b6000806040838503121561106d57600080fd5b600061107b85828601610ef0565b925050602061108c85828601610ef0565b9150509250929050565b60006110a283836110ae565b60208301905092915050565b6110b781611652565b82525050565b6110c681611652565b82525050565b60006110d782611539565b6110e18185611551565b93506110ec83611524565b8060005b83811015611124576111018261178e565b61110b8882611096565b975061111683611544565b9250506001810190506110f0565b5085935050505092915050565b600061113e601283611562565b91507f696e76616c69642062657420616d6f756e7400000000000000000000000000006000830152602082019050919050565b600061117e601483611562565b91507f4d6174636820646f6573206e6f742065786973740000000000000000000000006000830152602082019050919050565b60006111be600c83611562565b91507f6e6f7420616e2061646d696e00000000000000000000000000000000000000006000830152602082019050919050565b60006111fe601383611562565b91507f62657420646561646c696e6520706173736564000000000000000000000000006000830152602082019050919050565b600061123e601483611562565b91507f6d6174636820616c7265616479206578697374730000000000000000000000006000830152602082019050919050565b600061127e603283611562565b91507f696e76616c69642062657474696e6720747970652c20737570706f727465642060008301527f76616c7565732061726520302c20312c203200000000000000000000000000006020830152604082019050919050565b6112e081611664565b82525050565b6112ef816116a9565b82525050565b6112fe81611692565b82525050565b61130d816116bb565b82525050565b61131c8161169c565b82525050565b600060208201905061133760008301846110bd565b92915050565b600060808201905061135260008301876110bd565b61135f6020830186611304565b61136c60408301856112f5565b61137960608301846112e6565b95945050505050565b600060808201905061139760008301876110bd565b6113a46020830186611313565b6113b160408301856112f5565b6113be60608301846112d7565b95945050505050565b600060208201905081810360008301526113e181846110cc565b905092915050565b6000602082019050818103600083015261140281611131565b9050919050565b6000602082019050818103600083015261142281611171565b9050919050565b60006020820190508181036000830152611442816111b1565b9050919050565b60006020820190508181036000830152611462816111f1565b9050919050565b6000602082019050818103600083015261148281611231565b9050919050565b600060208201905081810360008301526114a281611271565b9050919050565b60006080820190506114be60008301876112d7565b6114cb6020830186611313565b6114d86040830185611313565b6114e56060830184611313565b95945050505050565b600060208201905061150360008301846112f5565b92915050565b600060208201905061151e6000830184611313565b92915050565b60008190508160005260206000209050919050565b600081549050919050565b6000600182019050919050565b600082825260208201905092915050565b600082825260208201905092915050565b600061157e82611692565b915061158983611692565b9250826115995761159861175f565b5b828204905092915050565b60006115af82611692565b91506115ba83611692565b9250817fffffffffffffffffffffffffffffffffffffffffffffffffffffffffffffffff04831182151516156115f3576115f2611730565b5b828202905092915050565b600061160982611692565b915061161483611692565b92508282101561162757611626611730565b5b828203905092915050565b600073ffffffffffffffffffffffffffffffffffffffff82169050919050565b600061165d82611672565b9050919050565b600061ffff82169050919050565b600073ffffffffffffffffffffffffffffffffffffffff82169050919050565b6000819050919050565b600060ff82169050919050565b60006116b482611664565b9050919050565b60006116c68261169c565b9050919050565b60006116e06116db836117a1565b611632565b9050919050565b60006116f282611692565b91507fffffffffffffffffffffffffffffffffffffffffffffffffffffffffffffffff82141561172557611724611730565b5b600182019050919050565b7f4e487b7100000000000000000000000000000000000000000000000000000000600052601160045260246000fd5b7f4e487b7100000000000000000000000000000000000000000000000000000000600052601260045260246000fd5b600061179a82546116cd565b9050919050565b60008160001c9050919050565b6117b781611652565b81146117c257600080fd5b50565b6117ce81611664565b81146117d957600080fd5b50565b6117e581611692565b81146117f057600080fd5b50565b6117fc8161169c565b811461180757600080fd5b5056fea26469706673582212200f287f3ae39be6400162df69f9e8ac861217c98ff27a67b81c6e342b4010eca364736f6c63430008000033",
  "immutableReferences": {},
  "source": "pragma solidity ^0.8.0;\n\ncontract Betting {\n\n    address public owner;\n    uint public betDeadline; // svi mecevi imaju isti betting deadline\n\n    event betPlaced(address better, uint bettingType, uint betValue, uint oddsForWinning);\n    event payoutComplete(address[] winners);\n\n    struct Match {\n        uint16 matchID;\n        uint8 tieQuote;\n        uint8 teamAQuote;\n        uint8 teamBQuote;\n    }\n\n    struct Bet {\n        address better;\n        uint8 typeofBet;\n        uint256 betAmount;\n        uint16 oddsForWinning;\n    }\n\n    Match [] public matches;\n    address [] public winners;\n\n    mapping(uint16 => uint8) matchExists; // matchID => 0, 1\n    mapping(address => uint8) public bettingAdmins;\n    mapping(uint => Bet[]) public matchesPlacedBets; // matchID => Bet(address, typeofBet, betAmount)[]\n\n    constructor () payable {\n        // payable to have an initial amount on the house - needs to be able to payout a single winning bet\n       \t//require(msg.value == 1 ether, \"initial amount should be 1 eth\");\n        owner = msg.sender;\n        bettingAdmins[owner] = 1;\n        betDeadline = block.timestamp + 7 days; // example deadline\n    }\n\n    modifier onlyAdmin(){\n        require(bettingAdmins[msg.sender] == 1, \"not an admin\");\n        _;\n    }\n\n    function makeMatch(uint16 matchID, uint8 tieQuote, uint8 teamAQuote, uint8 teamBQuote) public onlyAdmin {\n        // testing function\n\n        require(matchExists[matchID] == 0, \"match already exists\");\n        matches.push(Match(matchID, tieQuote, teamAQuote, teamBQuote));\n\n    }\n\n    function placeBet(uint16 matchID, uint8 bettingType, uint16 oddsForWinning) external payable {\n        // bettingType (0, 1, 2) - (Tie, TeamA, TeamB)\n\n        // err checks\n        require(msg.value >= 0, \"invalid bet amount\");\n        require(bettingType == 0 || bettingType == 1 || bettingType == 2, \"invalid betting type, supported values are 0, 1, 2\");\n        require(block.timestamp <= betDeadline, \"bet deadline passed\");\n\t\trequire(matchExists[matchID] == 1, \"Match does not exist\");\n\n        matchesPlacedBets[matchID].push(Bet(msg.sender, bettingType, msg.value, oddsForWinning));\n        emit betPlaced(msg.sender, bettingType, msg.value, oddsForWinning);\n    }\n\n    function payWinningBets(uint16 matchID, uint8 winningType) external payable onlyAdmin {\n\n        for(uint i = 0; i < matchesPlacedBets[matchID].length; i++){\n            if(matchesPlacedBets[matchID][i].typeofBet == winningType) {\n\n                winners.push(matchesPlacedBets[matchID][i].better);\n                uint total = matchesPlacedBets[matchID][i].betAmount * matchesPlacedBets[matchID][i].oddsForWinning;\n                // return rate = total * 0.95, 5% fee = 500 basis points\n                // imprecise values appear when bet <= 10000, in this case wei. TODO impose min betAmount\n\n                uint fee = total * 500 / 10000;\n                payable(matchesPlacedBets[matchID][i].better).transfer(total - fee);\n            }\n        }\n\n        emit payoutComplete(winners);\n    }\n\n    function addAdmin(address newAdminAddress) external onlyAdmin {\n        bettingAdmins[newAdminAddress] = 1;\n    }\n\n    function deleteAdmin(address adminAddress) external onlyAdmin {\n\t\tdelete bettingAdmins[adminAddress];\n\t}\n\n}\n",
  "sourcePath": "/home/lav/Desktop/3327 assignment/contracts/Betting.sol",
  "compiler": {
    "name": "solc",
    "version": "0.8.0+commit.c7dfd78e.Emscripten.clang"
  },
  "schemaVersion": "3.4.1",
  "updatedAt": "2021-07-11T20:37:42.300Z",
  "networkType": "ethereum",
  "devdoc": {
    "kind": "dev",
    "methods": {},
    "version": 1
  },
  "userdoc": {
    "kind": "user",
    "methods": {},
    "version": 1
  }
}