{
  "contractName": "Betting",
  "abi": [
    {
      "inputs": [],
      "stateMutability": "payable",
      "type": "constructor",
      "payable": true
    },
    {
      "anonymous": false,
      "inputs": [
        {
          "indexed": false,
          "internalType": "address",
          "name": "better",
          "type": "address"
        },
        {
          "indexed": false,
          "internalType": "uint256",
          "name": "bettingType",
          "type": "uint256"
        },
        {
          "indexed": false,
          "internalType": "uint256",
          "name": "betValue",
          "type": "uint256"
        },
        {
          "indexed": false,
          "internalType": "uint256",
          "name": "oddsForWinning",
          "type": "uint256"
        }
      ],
      "name": "betPlaced",
      "type": "event"
    },
    {
      "anonymous": false,
      "inputs": [
        {
          "components": [
            {
              "internalType": "address",
              "name": "better",
              "type": "address"
            },
            {
              "internalType": "uint256",
              "name": "wonAmount",
              "type": "uint256"
            }
          ],
          "indexed": false,
          "internalType": "struct Betting.Winner",
          "name": "winner",
          "type": "tuple"
        }
      ],
      "name": "payoutComplete",
      "type": "event"
    },
    {
      "inputs": [],
      "name": "betDeadline",
      "outputs": [
        {
          "internalType": "uint256",
          "name": "",
          "type": "uint256"
        }
      ],
      "stateMutability": "view",
      "type": "function",
      "constant": true
    },
    {
      "inputs": [
        {
          "internalType": "address",
          "name": "",
          "type": "address"
        }
      ],
      "name": "bettingAdmins",
      "outputs": [
        {
          "internalType": "uint8",
          "name": "",
          "type": "uint8"
        }
      ],
      "stateMutability": "view",
      "type": "function",
      "constant": true
    },
    {
      "inputs": [
        {
          "internalType": "uint16",
          "name": "",
          "type": "uint16"
        }
      ],
      "name": "matchMapping",
      "outputs": [
        {
          "internalType": "uint16",
          "name": "matchID",
          "type": "uint16"
        },
        {
          "internalType": "uint8",
          "name": "tieQuote",
          "type": "uint8"
        },
        {
          "internalType": "uint8",
          "name": "teamAQuote",
          "type": "uint8"
        },
        {
          "internalType": "uint8",
          "name": "teamBQuote",
          "type": "uint8"
        }
      ],
      "stateMutability": "view",
      "type": "function",
      "constant": true
    },
    {
      "inputs": [],
      "name": "owner",
      "outputs": [
        {
          "internalType": "address",
          "name": "",
          "type": "address"
        }
      ],
      "stateMutability": "view",
      "type": "function",
      "constant": true
    },
    {
      "inputs": [
        {
          "internalType": "uint16",
          "name": "matchID",
          "type": "uint16"
        },
        {
          "internalType": "uint8",
          "name": "tieQuote",
          "type": "uint8"
        },
        {
          "internalType": "uint8",
          "name": "teamAQuote",
          "type": "uint8"
        },
        {
          "internalType": "uint8",
          "name": "teamBQuote",
          "type": "uint8"
        }
      ],
      "name": "makeMatch",
      "outputs": [],
      "stateMutability": "nonpayable",
      "type": "function"
    },
    {
      "inputs": [
        {
          "internalType": "uint16",
          "name": "matchID",
          "type": "uint16"
        },
        {
          "internalType": "uint8",
          "name": "bettingType",
          "type": "uint8"
        },
        {
          "internalType": "uint16",
          "name": "oddsForWinning",
          "type": "uint16"
        }
      ],
      "name": "placeBet",
      "outputs": [],
      "stateMutability": "payable",
      "type": "function",
      "payable": true
    },
    {
      "inputs": [
        {
          "internalType": "uint16",
          "name": "matchID",
          "type": "uint16"
        },
        {
          "internalType": "uint8",
          "name": "winningType",
          "type": "uint8"
        }
      ],
      "name": "payWinningBets",
      "outputs": [],
      "stateMutability": "payable",
      "type": "function",
      "payable": true
    },
    {
      "inputs": [
        {
          "internalType": "uint16",
          "name": "matchID",
          "type": "uint16"
        }
      ],
      "name": "matchExists_f",
      "outputs": [
        {
          "internalType": "bool",
          "name": "",
          "type": "bool"
        }
      ],
      "stateMutability": "view",
      "type": "function",
      "constant": true
    },
    {
      "inputs": [],
      "name": "getContractBalance",
      "outputs": [
        {
          "internalType": "uint256",
          "name": "",
          "type": "uint256"
        }
      ],
      "stateMutability": "view",
      "type": "function",
      "constant": true
    }
  ],
  "bytecode": "0x6080604052600034116200004a576040517f08c379a00000000000000000000000000000000000000000000000000000000081526004016200004190620004bd565b60405180910390fd5b336000806101000a81548173ffffffffffffffffffffffffffffffffffffffff021916908373ffffffffffffffffffffffffffffffffffffffff1602179055506001600660008060009054906101000a900473ffffffffffffffffffffffffffffffffffffffff1673ffffffffffffffffffffffffffffffffffffffff1673ffffffffffffffffffffffffffffffffffffffff16815260200190815260200160002060006101000a81548160ff021916908360ff160217905550625460004262000115919062000512565b6001819055506200012b6200013160201b60201c565b620005a8565b620001496000600360026003620001c260201b60201c565b620001616001600260096002620001c260201b60201c565b6200017860028060036005620001c260201b60201c565b620001906003600260036005620001c260201b60201c565b620001a86004600260036005620001c260201b60201c565b620001c06005600260036005620001c260201b60201c565b565b6001600660003373ffffffffffffffffffffffffffffffffffffffff1673ffffffffffffffffffffffffffffffffffffffff16815260200190815260200160002060009054906101000a900460ff1660ff161462000257576040517f08c379a00000000000000000000000000000000000000000000000000000000081526004016200024e906200049b565b60405180910390fd5b6000600260008661ffff1661ffff16815260200190815260200160002060009054906101000a900460ff1660ff1614620002c8576040517f08c379a0000000000000000000000000000000000000000000000000000000008152600401620002bf90620004df565b60405180910390fd5b6001600260008661ffff1661ffff16815260200190815260200160002060006101000a81548160ff021916908360ff16021790555060405180608001604052808561ffff1681526020018460ff1681526020018360ff1681526020018260ff16815250600560008661ffff1661ffff16815260200190815260200160002060008201518160000160006101000a81548161ffff021916908361ffff16021790555060208201518160000160026101000a81548160ff021916908360ff16021790555060408201518160000160036101000a81548160ff021916908360ff16021790555060608201518160000160046101000a81548160ff021916908360ff16021790555090505050505050565b6000620003e4600c8362000501565b91507f6e6f7420616e2061646d696e00000000000000000000000000000000000000006000830152602082019050919050565b600062000426601b8362000501565b91507f7468657265206e6565647320746f2062652061206465706f73697400000000006000830152602082019050919050565b60006200046860148362000501565b91507f6d6174636820616c7265616479206578697374730000000000000000000000006000830152602082019050919050565b60006020820190508181036000830152620004b681620003d5565b9050919050565b60006020820190508181036000830152620004d88162000417565b9050919050565b60006020820190508181036000830152620004fa8162000459565b9050919050565b600082825260208201905092915050565b60006200051f826200056f565b91506200052c836200056f565b9250827fffffffffffffffffffffffffffffffffffffffffffffffffffffffffffffffff0382111562000564576200056362000579565b5b828201905092915050565b6000819050919050565b7f4e487b7100000000000000000000000000000000000000000000000000000000600052601160045260246000fd5b61175180620005b86000396000f3fe6080604052600436106100865760003560e01c80639464a83c116100595780639464a83c1461015b57806399ae990814610177578063a6d932d1146101a2578063c3f45695146101be578063dad12ab8146101e757610086565b80630bf8dff51461008b57806320ba0777146100c85780636f9fb98a146101055780638da5cb5b14610130575b600080fd5b34801561009757600080fd5b506100b260048036038101906100ad9190610ed4565b610227565b6040516100bf9190611327565b60405180910390f35b3480156100d457600080fd5b506100ef60048036038101906100ea9190610eab565b61030a565b6040516100fc91906114bd565b60405180910390f35b34801561011157600080fd5b5061011a61032a565b60405161012791906114a2565b60405180910390f35b34801561013c57600080fd5b50610145610332565b60405161015291906112c7565b60405180910390f35b61017560048036038101906101709190610f39565b610356565b005b34801561018357600080fd5b5061018c610745565b60405161019991906114a2565b60405180910390f35b6101bc60048036038101906101b79190610efd565b61074b565b005b3480156101ca57600080fd5b506101e560048036038101906101e09190610f88565b610bfa565b005b3480156101f357600080fd5b5061020e60048036038101906102099190610ed4565b610e07565b60405161021e949392919061145d565b60405180910390f35b60006001600660003373ffffffffffffffffffffffffffffffffffffffff1673ffffffffffffffffffffffffffffffffffffffff16815260200190815260200160002060009054906101000a900460ff1660ff16146102bb576040517f08c379a00000000000000000000000000000000000000000000000000000000081526004016102b2906113a2565b60405180910390fd5b8161ffff16600560008461ffff1661ffff16815260200190815260200160002060000160009054906101000a900461ffff1661ffff1614156103005760019050610305565b600090505b919050565b60066020528060005260406000206000915054906101000a900460ff1681565b600047905090565b60008054906101000a900473ffffffffffffffffffffffffffffffffffffffff1681565b60003411610399576040517f08c379a000000000000000000000000000000000000000000000000000000000815260040161039090611342565b60405180910390fd5b60008260ff1614806103ae575060018260ff16145b806103bc575060028260ff16145b6103fb576040517f08c379a00000000000000000000000000000000000000000000000000000000081526004016103f290611422565b60405180910390fd5b600154421115610440576040517f08c379a0000000000000000000000000000000000000000000000000000000008152600401610437906113e2565b60405180910390fd5b6001600260008561ffff1661ffff16815260200190815260200160002060009054906101000a900460ff1660ff16146104ae576040517f08c379a00000000000000000000000000000000000000000000000000000000081526004016104a590611362565b60405180910390fd5b6000808360ff161480156104f45750600560008561ffff1661ffff16815260200190815260200160002060000160029054906101000a900460ff1660ff168261ffff1614155b1561050257600190506105a6565b60018360ff161480156105475750600560008561ffff1661ffff16815260200190815260200160002060000160039054906101000a900460ff1660ff168261ffff1614155b1561055557600190506105a5565b60028360ff1614801561059a5750600560008561ffff1661ffff16815260200190815260200160002060000160049054906101000a900460ff1660ff168261ffff1614155b156105a457600190505b5b5b60001515811515146105ed576040517f08c379a00000000000000000000000000000000000000000000000000000000081526004016105e4906113c2565b60405180910390fd5b600460008561ffff16815260200190815260200160002060405180608001604052803373ffffffffffffffffffffffffffffffffffffffff1681526020018560ff1681526020013481526020018461ffff16815250908060018154018082558091505060019003906000526020600020906003020160009091909190915060008201518160000160006101000a81548173ffffffffffffffffffffffffffffffffffffffff021916908373ffffffffffffffffffffffffffffffffffffffff16021790555060208201518160000160146101000a81548160ff021916908360ff1602179055506040820151816001015560608201518160020160006101000a81548161ffff021916908361ffff16021790555050507fd121577be0822e8a7239d8602221827df95d3a809db0b35bd79b611575a9fd193384348560405161073794939291906112e2565b60405180910390a150505050565b60015481565b6001600660003373ffffffffffffffffffffffffffffffffffffffff1673ffffffffffffffffffffffffffffffffffffffff16815260200190815260200160002060009054906101000a900460ff1660ff16146107dd576040517f08c379a00000000000000000000000000000000000000000000000000000000081526004016107d4906113a2565b60405180910390fd5b6000600360008461ffff1661ffff16815260200190815260200160002060009054906101000a900460ff1660ff161461084b576040517f08c379a000000000000000000000000000000000000000000000000000000000815260040161084290611382565b60405180910390fd5b60005b600460008461ffff16815260200190815260200160002080549050811015610bc0578160ff16600460008561ffff16815260200190815260200160002082815481106108c3577f4e487b7100000000000000000000000000000000000000000000000000000000600052603260045260246000fd5b906000526020600020906003020160000160149054906101000a900460ff1660ff161415610bad576000600460008561ffff168152602001908152602001600020828154811061093c577f4e487b7100000000000000000000000000000000000000000000000000000000600052603260045260246000fd5b906000526020600020906003020160020160009054906101000a900461ffff1661ffff16600460008661ffff16815260200190815260200160002083815481106109af577f4e487b7100000000000000000000000000000000000000000000000000000000600052603260045260246000fd5b9060005260206000209060030201600101546109cb919061151a565b905060006127106101f4836109e0919061151a565b6109ea91906114e9565b9050600460008661ffff1681526020019081526020016000208381548110610a3b577f4e487b7100000000000000000000000000000000000000000000000000000000600052603260045260246000fd5b906000526020600020906003020160000160009054906101000a900473ffffffffffffffffffffffffffffffffffffffff1673ffffffffffffffffffffffffffffffffffffffff166108fc8284610a929190611574565b9081150290604051600060405180830381858888f19350505050158015610abd573d6000803e3d6000fd5b507f248bcf64d63b05d245bf594afd3854696c170b4a6434e084daf6d7ed565101146040518060400160405280600460008961ffff1681526020019081526020016000208681548110610b39577f4e487b7100000000000000000000000000000000000000000000000000000000600052603260045260246000fd5b906000526020600020906003020160000160009054906101000a900473ffffffffffffffffffffffffffffffffffffffff1673ffffffffffffffffffffffffffffffffffffffff1681526020018385610b929190611574565b815250604051610ba29190611442565b60405180910390a150505b8080610bb89061162f565b91505061084e565b506001600360008461ffff1661ffff16815260200190815260200160002060006101000a81548160ff021916908360ff1602179055505050565b6001600660003373ffffffffffffffffffffffffffffffffffffffff1673ffffffffffffffffffffffffffffffffffffffff16815260200190815260200160002060009054906101000a900460ff1660ff1614610c8c576040517f08c379a0000000000000000000000000000000000000000000000000000000008152600401610c83906113a2565b60405180910390fd5b6000600260008661ffff1661ffff16815260200190815260200160002060009054906101000a900460ff1660ff1614610cfa576040517f08c379a0000000000000000000000000000000000000000000000000000000008152600401610cf190611402565b60405180910390fd5b6001600260008661ffff1661ffff16815260200190815260200160002060006101000a81548160ff021916908360ff16021790555060405180608001604052808561ffff1681526020018460ff1681526020018360ff1681526020018260ff16815250600560008661ffff1661ffff16815260200190815260200160002060008201518160000160006101000a81548161ffff021916908361ffff16021790555060208201518160000160026101000a81548160ff021916908360ff16021790555060408201518160000160036101000a81548160ff021916908360ff16021790555060608201518160000160046101000a81548160ff021916908360ff16021790555090505050505050565b60056020528060005260406000206000915090508060000160009054906101000a900461ffff16908060000160029054906101000a900460ff16908060000160039054906101000a900460ff16908060000160049054906101000a900460ff16905084565b600081359050610e7b816116d6565b92915050565b600081359050610e90816116ed565b92915050565b600081359050610ea581611704565b92915050565b600060208284031215610ebd57600080fd5b6000610ecb84828501610e6c565b91505092915050565b600060208284031215610ee657600080fd5b6000610ef484828501610e81565b91505092915050565b60008060408385031215610f1057600080fd5b6000610f1e85828601610e81565b9250506020610f2f85828601610e96565b9150509250929050565b600080600060608486031215610f4e57600080fd5b6000610f5c86828701610e81565b9350506020610f6d86828701610e96565b9250506040610f7e86828701610e81565b9150509250925092565b60008060008060808587031215610f9e57600080fd5b6000610fac87828801610e81565b9450506020610fbd87828801610e96565b9350506040610fce87828801610e96565b9250506060610fdf87828801610e96565b91505092959194509250565b610ff4816115a8565b82525050565b611003816115a8565b82525050565b611012816115ba565b82525050565b60006110256012836114d8565b91507f696e76616c69642062657420616d6f756e7400000000000000000000000000006000830152602082019050919050565b60006110656014836114d8565b91507f4d6174636820646f6573206e6f742065786973740000000000000000000000006000830152602082019050919050565b60006110a56017836114d8565b91507f6d6174636820616c7265616479207061796564206f75740000000000000000006000830152602082019050919050565b60006110e5600c836114d8565b91507f6e6f7420616e2061646d696e00000000000000000000000000000000000000006000830152602082019050919050565b60006111256017836114d8565b91507f75736572206861732066616c736966696564206f6464730000000000000000006000830152602082019050919050565b60006111656013836114d8565b91507f62657420646561646c696e6520706173736564000000000000000000000000006000830152602082019050919050565b60006111a56014836114d8565b91507f6d6174636820616c7265616479206578697374730000000000000000000000006000830152602082019050919050565b60006111e56032836114d8565b91507f696e76616c69642062657474696e6720747970652c20737570706f727465642060008301527f76616c7565732061726520302c20312c203200000000000000000000000000006020830152604082019050919050565b6040820160008201516112546000850182610feb565b506020820151611267602085018261128b565b50505050565b611276816115c6565b82525050565b6112858161160b565b82525050565b611294816115f4565b82525050565b6112a3816115f4565b82525050565b6112b28161161d565b82525050565b6112c1816115fe565b82525050565b60006020820190506112dc6000830184610ffa565b92915050565b60006080820190506112f76000830187610ffa565b61130460208301866112a9565b611311604083018561129a565b61131e606083018461127c565b95945050505050565b600060208201905061133c6000830184611009565b92915050565b6000602082019050818103600083015261135b81611018565b9050919050565b6000602082019050818103600083015261137b81611058565b9050919050565b6000602082019050818103600083015261139b81611098565b9050919050565b600060208201905081810360008301526113bb816110d8565b9050919050565b600060208201905081810360008301526113db81611118565b9050919050565b600060208201905081810360008301526113fb81611158565b9050919050565b6000602082019050818103600083015261141b81611198565b9050919050565b6000602082019050818103600083015261143b816111d8565b9050919050565b6000604082019050611457600083018461123e565b92915050565b6000608082019050611472600083018761126d565b61147f60208301866112b8565b61148c60408301856112b8565b61149960608301846112b8565b95945050505050565b60006020820190506114b7600083018461129a565b92915050565b60006020820190506114d260008301846112b8565b92915050565b600082825260208201905092915050565b60006114f4826115f4565b91506114ff836115f4565b92508261150f5761150e6116a7565b5b828204905092915050565b6000611525826115f4565b9150611530836115f4565b9250817fffffffffffffffffffffffffffffffffffffffffffffffffffffffffffffffff048311821515161561156957611568611678565b5b828202905092915050565b600061157f826115f4565b915061158a836115f4565b92508282101561159d5761159c611678565b5b828203905092915050565b60006115b3826115d4565b9050919050565b60008115159050919050565b600061ffff82169050919050565b600073ffffffffffffffffffffffffffffffffffffffff82169050919050565b6000819050919050565b600060ff82169050919050565b6000611616826115c6565b9050919050565b6000611628826115fe565b9050919050565b600061163a826115f4565b91507fffffffffffffffffffffffffffffffffffffffffffffffffffffffffffffffff82141561166d5761166c611678565b5b600182019050919050565b7f4e487b7100000000000000000000000000000000000000000000000000000000600052601160045260246000fd5b7f4e487b7100000000000000000000000000000000000000000000000000000000600052601260045260246000fd5b6116df816115a8565b81146116ea57600080fd5b50565b6116f6816115c6565b811461170157600080fd5b50565b61170d816115fe565b811461171857600080fd5b5056fea2646970667358221220fb5b752bec5393be150d8aeaa26e82f9a84132cf10ef2ea239e59ea9e3d8abd264736f6c63430008000033",
  "immutableReferences": {},
  "source": "// SPDX-License-Identifier: MIT\n\npragma solidity ^0.8.0;\n\n\ncontract Betting {\n\n    address public owner;\n    uint public betDeadline; // svi mecevi imaju isti betting deadline\n\n    event betPlaced(address better, uint bettingType, uint betValue, uint oddsForWinning);\n    event payoutComplete(Winner winner);\n\n    struct Match {\n        uint16 matchID;\n        uint8 tieQuote;\n        uint8 teamAQuote;\n        uint8 teamBQuote;\n    }\n\n    struct Bet {\n        address better;\n        uint8 typeofBet;\n        uint256 betAmount;\n        uint16 oddsForWinning;\n    }\n\n\tstruct Winner{\n\t\taddress better;\n\t\tuint256 wonAmount;\n\t}\n\n    mapping(uint16 => uint8) matchExists; // matchID => 0, 1 // maybe not needed bcs of matchMapping\n    mapping(uint16 => uint8) matchPayedOut; // matchID => 0, 1\n\tmapping(uint => Bet[]) matchesPlacedBets; // matchID => Bet(struct attributes)[]\n\tmapping(uint16 => Match) public matchMapping; // matchID, Match(struct attributes)\n    mapping(address => uint8) public bettingAdmins;\n\n    constructor () payable {\n        // payable to have an initial amount on the house - needs to be able to payout a single winning bet\n       \trequire(msg.value > 0, \"there needs to be a deposit\");\n        owner = msg.sender;\n        bettingAdmins[owner] = 1;\n        betDeadline = block.timestamp + 64 days; // example deadline\n\t\tmakeMatches();\n    }\n\n    modifier onlyAdmin(){\n        require(bettingAdmins[msg.sender] == 1, \"not an admin\");\n        _;\n    }\n\n\tfunction makeMatches() internal {\n\t\t// create matches with same attributes as in JSON\n\t\t// TODO make this not hard-coded\n\t\tmakeMatch(0, 3, 2, 3);\n\t\tmakeMatch(1, 2, 9, 2);\n\t\tmakeMatch(2, 2, 3, 5);\n\t\tmakeMatch(3, 2, 3, 5);\n\t\tmakeMatch(4, 2, 3, 5);\n\t\tmakeMatch(5, 2, 3, 5);\n\t}\n\n\tfunction makeMatch(uint16 matchID, uint8 tieQuote, uint8 teamAQuote, uint8 teamBQuote) public onlyAdmin {\n  \t  require(matchExists[matchID] == 0, \"match already exists\");\n  \t  matchExists[matchID] = 1;\n\t  matchMapping[matchID] = Match(matchID, tieQuote, teamAQuote, teamBQuote);\n    }\n\n    function placeBet(uint16 matchID, uint8 bettingType, uint16 oddsForWinning) external payable {\n        // bettingType (0, 1, 2) - (Tie, TeamA, TeamB)\n\n        // err checks\n        require(msg.value > 0, \"invalid bet amount\");\n        require(bettingType == 0 || bettingType == 1 || bettingType == 2, \"invalid betting type, supported values are 0, 1, 2\");\n        require(block.timestamp <= betDeadline, \"bet deadline passed\");\n\t\trequire(matchExists[matchID] == 1, \"Match does not exist\");\n\n\t\tbool falsified = false;\n\t\tif(bettingType == 0 && oddsForWinning != matchMapping[matchID].tieQuote) {\n\t\t\tfalsified = true;\n\t\t} else if (bettingType == 1 && oddsForWinning != matchMapping[matchID].teamAQuote) {\n\t\t\tfalsified = true;\n\t\t}\n\t\telse if (bettingType == 2 && oddsForWinning != matchMapping[matchID].teamBQuote) {\n\t\t\tfalsified = true;\n\t\t} // simple check if user falsified bet info\n\n\t\trequire(falsified == false, \"user has falsified odds\");\n\n        matchesPlacedBets[matchID].push(Bet(msg.sender, bettingType, msg.value, oddsForWinning));\n        emit betPlaced(msg.sender, bettingType, msg.value, oddsForWinning);\n    }\n\n    function payWinningBets(uint16 matchID, uint8 winningType) external payable onlyAdmin {\n\n        require(matchPayedOut[matchID] == 0, \"match already payed out\");\n    //    Winner [] memory winners;\n        for(uint i = 0; i < matchesPlacedBets[matchID].length; i++){\n            if(matchesPlacedBets[matchID][i].typeofBet == winningType) {\n\n                uint total = matchesPlacedBets[matchID][i].betAmount * matchesPlacedBets[matchID][i].oddsForWinning;\n                // return rate = total * 0.95, 5% fee = 500 basis points\n                // imprecise values appear when bet <= 10000, in this case wei. TODO impose min betAmount\n\n                uint fee = (total * 500) / 10000;\n\t\t\t\t// winners [] too expensive?\n\t\t\t//\twinners[i] = Winner(matchesPlacedBets[matchID][i].better, (total - fee));\n\n                payable(matchesPlacedBets[matchID][i].better).transfer(total - fee);\n                emit payoutComplete(Winner(matchesPlacedBets[matchID][i].better, (total - fee)));\n            }\n            // todo check if contract balance bit enough to payout everyone\n        }\n        matchPayedOut[matchID] = 1;\n    }\n\n    /* function addAdmin(address newAdminAddress) external onlyAdmin {\n        bettingAdmins[newAdminAddress] = 1;\n    }\n\n    function deleteAdmin(address adminAddress) external onlyAdmin {\n\t\tdelete bettingAdmins[adminAddress];\n\t} */\n\n\tfunction matchExists_f(uint16 matchID) view external onlyAdmin returns(bool) {\n\t\tif(matchMapping[matchID].matchID == matchID)\n\t\t\treturn true;\n\t\treturn false;\n\t}\n\n\tfunction getContractBalance() view public returns (uint256) {\n        return address(this).balance;\n    }\n\n\n}\n",
  "sourcePath": "/home/lav/Desktop/3327 assignment/contracts/Betting.sol",
  "compiler": {
    "name": "solc",
    "version": "0.8.0+commit.c7dfd78e.Emscripten.clang"
  },
  "schemaVersion": "3.4.1",
  "updatedAt": "2021-07-15T15:51:49.604Z",
  "networkType": "ethereum",
  "devdoc": {
    "kind": "dev",
    "methods": {},
    "version": 1
  },
  "userdoc": {
    "kind": "user",
    "methods": {},
    "version": 1
  }
}